{
  "_format": "hh-sol-artifact-1",
  "contractName": "NFTMarketPlace",
  "sourceName": "contracts/NFTMarketplace.sol",
  "abi": [
    {
      "inputs": [],
      "stateMutability": "nonpayable",
      "type": "constructor"
    },
    {
      "anonymous": false,
      "inputs": [
        {
          "indexed": true,
          "internalType": "address",
          "name": "owner",
          "type": "address"
        },
        {
          "indexed": true,
          "internalType": "address",
          "name": "approved",
          "type": "address"
        },
        {
          "indexed": true,
          "internalType": "uint256",
          "name": "tokenId",
          "type": "uint256"
        }
      ],
      "name": "Approval",
      "type": "event"
    },
    {
      "anonymous": false,
      "inputs": [
        {
          "indexed": true,
          "internalType": "address",
          "name": "owner",
          "type": "address"
        },
        {
          "indexed": true,
          "internalType": "address",
          "name": "operator",
          "type": "address"
        },
        {
          "indexed": false,
          "internalType": "bool",
          "name": "approved",
          "type": "bool"
        }
      ],
      "name": "ApprovalForAll",
      "type": "event"
    },
    {
      "anonymous": false,
      "inputs": [
        {
          "indexed": true,
          "internalType": "address",
          "name": "from",
          "type": "address"
        },
        {
          "indexed": true,
          "internalType": "address",
          "name": "to",
          "type": "address"
        },
        {
          "indexed": true,
          "internalType": "uint256",
          "name": "tokenId",
          "type": "uint256"
        }
      ],
      "name": "Transfer",
      "type": "event"
    },
    {
      "inputs": [
        {
          "internalType": "address",
          "name": "to",
          "type": "address"
        },
        {
          "internalType": "uint256",
          "name": "tokenId",
          "type": "uint256"
        }
      ],
      "name": "approve",
      "outputs": [],
      "stateMutability": "nonpayable",
      "type": "function"
    },
    {
      "inputs": [
        {
          "internalType": "address",
          "name": "owner",
          "type": "address"
        }
      ],
      "name": "balanceOf",
      "outputs": [
        {
          "internalType": "uint256",
          "name": "",
          "type": "uint256"
        }
      ],
      "stateMutability": "view",
      "type": "function"
    },
    {
      "inputs": [
        {
          "internalType": "string",
          "name": "tokenURI",
          "type": "string"
        },
        {
          "internalType": "uint256",
          "name": "price",
          "type": "uint256"
        }
      ],
      "name": "createToken",
      "outputs": [
        {
          "internalType": "uint256",
          "name": "",
          "type": "uint256"
        }
      ],
      "stateMutability": "payable",
      "type": "function"
    },
    {
      "inputs": [
        {
          "internalType": "uint256",
          "name": "tokenId",
          "type": "uint256"
        }
      ],
      "name": "executeSale",
      "outputs": [],
      "stateMutability": "payable",
      "type": "function"
    },
    {
      "inputs": [],
      "name": "getAllNFTs",
      "outputs": [
        {
          "components": [
            {
              "internalType": "uint256",
              "name": "tokenId",
              "type": "uint256"
            },
            {
              "internalType": "address payable",
              "name": "owner",
              "type": "address"
            },
            {
              "internalType": "address payable",
              "name": "seller",
              "type": "address"
            },
            {
              "internalType": "uint256",
              "name": "price",
              "type": "uint256"
            },
            {
              "internalType": "bool",
              "name": "currentlyListed",
              "type": "bool"
            }
          ],
          "internalType": "struct NFTMarketPlace.ListedToken[]",
          "name": "",
          "type": "tuple[]"
        }
      ],
      "stateMutability": "view",
      "type": "function"
    },
    {
      "inputs": [
        {
          "internalType": "uint256",
          "name": "tokenId",
          "type": "uint256"
        }
      ],
      "name": "getApproved",
      "outputs": [
        {
          "internalType": "address",
          "name": "",
          "type": "address"
        }
      ],
      "stateMutability": "view",
      "type": "function"
    },
    {
      "inputs": [],
      "name": "getCurrentToken",
      "outputs": [
        {
          "internalType": "uint256",
          "name": "",
          "type": "uint256"
        }
      ],
      "stateMutability": "view",
      "type": "function"
    },
    {
      "inputs": [],
      "name": "getLastedIdToListedToken",
      "outputs": [
        {
          "components": [
            {
              "internalType": "uint256",
              "name": "tokenId",
              "type": "uint256"
            },
            {
              "internalType": "address payable",
              "name": "owner",
              "type": "address"
            },
            {
              "internalType": "address payable",
              "name": "seller",
              "type": "address"
            },
            {
              "internalType": "uint256",
              "name": "price",
              "type": "uint256"
            },
            {
              "internalType": "bool",
              "name": "currentlyListed",
              "type": "bool"
            }
          ],
          "internalType": "struct NFTMarketPlace.ListedToken",
          "name": "",
          "type": "tuple"
        }
      ],
      "stateMutability": "view",
      "type": "function"
    },
    {
      "inputs": [],
      "name": "getListPrice",
      "outputs": [
        {
          "internalType": "uint256",
          "name": "",
          "type": "uint256"
        }
      ],
      "stateMutability": "view",
      "type": "function"
    },
    {
      "inputs": [
        {
          "internalType": "uint256",
          "name": "tokenId",
          "type": "uint256"
        }
      ],
      "name": "getListedForTokenId",
      "outputs": [
        {
          "components": [
            {
              "internalType": "uint256",
              "name": "tokenId",
              "type": "uint256"
            },
            {
              "internalType": "address payable",
              "name": "owner",
              "type": "address"
            },
            {
              "internalType": "address payable",
              "name": "seller",
              "type": "address"
            },
            {
              "internalType": "uint256",
              "name": "price",
              "type": "uint256"
            },
            {
              "internalType": "bool",
              "name": "currentlyListed",
              "type": "bool"
            }
          ],
          "internalType": "struct NFTMarketPlace.ListedToken",
          "name": "",
          "type": "tuple"
        }
      ],
      "stateMutability": "view",
      "type": "function"
    },
    {
      "inputs": [],
      "name": "getMyNFTs",
      "outputs": [
        {
          "components": [
            {
              "internalType": "uint256",
              "name": "tokenId",
              "type": "uint256"
            },
            {
              "internalType": "address payable",
              "name": "owner",
              "type": "address"
            },
            {
              "internalType": "address payable",
              "name": "seller",
              "type": "address"
            },
            {
              "internalType": "uint256",
              "name": "price",
              "type": "uint256"
            },
            {
              "internalType": "bool",
              "name": "currentlyListed",
              "type": "bool"
            }
          ],
          "internalType": "struct NFTMarketPlace.ListedToken[]",
          "name": "",
          "type": "tuple[]"
        }
      ],
      "stateMutability": "view",
      "type": "function"
    },
    {
      "inputs": [
        {
          "internalType": "address",
          "name": "owner",
          "type": "address"
        },
        {
          "internalType": "address",
          "name": "operator",
          "type": "address"
        }
      ],
      "name": "isApprovedForAll",
      "outputs": [
        {
          "internalType": "bool",
          "name": "",
          "type": "bool"
        }
      ],
      "stateMutability": "view",
      "type": "function"
    },
    {
      "inputs": [],
      "name": "name",
      "outputs": [
        {
          "internalType": "string",
          "name": "",
          "type": "string"
        }
      ],
      "stateMutability": "view",
      "type": "function"
    },
    {
      "inputs": [
        {
          "internalType": "uint256",
          "name": "tokenId",
          "type": "uint256"
        }
      ],
      "name": "ownerOf",
      "outputs": [
        {
          "internalType": "address",
          "name": "",
          "type": "address"
        }
      ],
      "stateMutability": "view",
      "type": "function"
    },
    {
      "inputs": [
        {
          "internalType": "address",
          "name": "from",
          "type": "address"
        },
        {
          "internalType": "address",
          "name": "to",
          "type": "address"
        },
        {
          "internalType": "uint256",
          "name": "tokenId",
          "type": "uint256"
        }
      ],
      "name": "safeTransferFrom",
      "outputs": [],
      "stateMutability": "nonpayable",
      "type": "function"
    },
    {
      "inputs": [
        {
          "internalType": "address",
          "name": "from",
          "type": "address"
        },
        {
          "internalType": "address",
          "name": "to",
          "type": "address"
        },
        {
          "internalType": "uint256",
          "name": "tokenId",
          "type": "uint256"
        },
        {
          "internalType": "bytes",
          "name": "_data",
          "type": "bytes"
        }
      ],
      "name": "safeTransferFrom",
      "outputs": [],
      "stateMutability": "nonpayable",
      "type": "function"
    },
    {
      "inputs": [
        {
          "internalType": "address",
          "name": "operator",
          "type": "address"
        },
        {
          "internalType": "bool",
          "name": "approved",
          "type": "bool"
        }
      ],
      "name": "setApprovalForAll",
      "outputs": [],
      "stateMutability": "nonpayable",
      "type": "function"
    },
    {
      "inputs": [
        {
          "internalType": "bytes4",
          "name": "interfaceId",
          "type": "bytes4"
        }
      ],
      "name": "supportsInterface",
      "outputs": [
        {
          "internalType": "bool",
          "name": "",
          "type": "bool"
        }
      ],
      "stateMutability": "view",
      "type": "function"
    },
    {
      "inputs": [],
      "name": "symbol",
      "outputs": [
        {
          "internalType": "string",
          "name": "",
          "type": "string"
        }
      ],
      "stateMutability": "view",
      "type": "function"
    },
    {
      "inputs": [
        {
          "internalType": "uint256",
          "name": "tokenId",
          "type": "uint256"
        }
      ],
      "name": "tokenURI",
      "outputs": [
        {
          "internalType": "string",
          "name": "",
          "type": "string"
        }
      ],
      "stateMutability": "view",
      "type": "function"
    },
    {
      "inputs": [
        {
          "internalType": "address",
          "name": "from",
          "type": "address"
        },
        {
          "internalType": "address",
          "name": "to",
          "type": "address"
        },
        {
          "internalType": "uint256",
          "name": "tokenId",
          "type": "uint256"
        }
      ],
      "name": "transferFrom",
      "outputs": [],
      "stateMutability": "nonpayable",
      "type": "function"
    },
    {
      "inputs": [
        {
          "internalType": "uint256",
          "name": "_listPrice",
          "type": "uint256"
        }
      ],
      "name": "updateListPrice",
      "outputs": [],
      "stateMutability": "payable",
      "type": "function"
    }
  ],
  "bytecode": "0x608060405266038d7ea4c68000600a553480156200001c57600080fd5b506040518060400160405280600e81526020017f4e46544d61726b6574506c6163650000000000000000000000000000000000008152506040518060400160405280600481526020017f4e46544d000000000000000000000000000000000000000000000000000000008152508160009080519060200190620000a192919062000104565b508060019080519060200190620000ba92919062000104565b50505033600760006101000a81548173ffffffffffffffffffffffffffffffffffffffff021916908373ffffffffffffffffffffffffffffffffffffffff16021790555062000219565b8280546200011290620001b4565b90600052602060002090601f01602090048101928262000136576000855562000182565b82601f106200015157805160ff191683800117855562000182565b8280016001018555821562000182579182015b828111156200018157825182559160200191906001019062000164565b5b50905062000191919062000195565b5090565b5b80821115620001b057600081600090555060010162000196565b5090565b60006002820490506001821680620001cd57607f821691505b60208210811415620001e457620001e3620001ea565b5b50919050565b7f4e487b7100000000000000000000000000000000000000000000000000000000600052602260045260246000fd5b613fa480620002296000396000f3fe6080604052600436106101355760003560e01c806395d89b41116100ab578063c322579c1161006f578063c322579c14610430578063c87b56dd1461044c578063e0391b0914610489578063e87f4055146104b4578063e985e9c5146104df578063ef2d17461461051c57610135565b806395d89b411461035a57806398c3df16146103855780639b1225c4146103c2578063a22cb465146103de578063b88d4fde1461040757610135565b806342842e0e116100fd57806342842e0e14610231578063629cb2e41461025a5780636352211e1461028557806368f1945f146102c257806370a08231146102ed57806372b3b6201461032a57610135565b806301ffc9a71461013a57806306fdde0314610177578063081812fc146101a2578063095ea7b3146101df57806323b872dd14610208575b600080fd5b34801561014657600080fd5b50610161600480360381019061015c9190612be0565b610547565b60405161016e919061325b565b60405180910390f35b34801561018357600080fd5b5061018c610629565b6040516101999190613276565b60405180910390f35b3480156101ae57600080fd5b506101c960048036038101906101c49190612c86565b6106bb565b6040516101d691906131d2565b60405180910390f35b3480156101eb57600080fd5b5061020660048036038101906102019190612ba4565b610740565b005b34801561021457600080fd5b5061022f600480360381019061022a9190612a9e565b610858565b005b34801561023d57600080fd5b5061025860048036038101906102539190612a9e565b6108b8565b005b34801561026657600080fd5b5061026f6108d8565b60405161027c9190613239565b60405180910390f35b34801561029157600080fd5b506102ac60048036038101906102a79190612c86565b610d02565b6040516102b991906131d2565b60405180910390f35b3480156102ce57600080fd5b506102d7610db4565b6040516102e49190613533565b60405180910390f35b3480156102f957600080fd5b50610314600480360381019061030f9190612a39565b610dbe565b6040516103219190613533565b60405180910390f35b610344600480360381019061033f9190612c32565b610e76565b6040516103519190613533565b60405180910390f35b34801561036657600080fd5b5061036f610f3f565b60405161037c9190613276565b60405180910390f35b34801561039157600080fd5b506103ac60048036038101906103a79190612c86565b610fd1565b6040516103b99190613518565b60405180910390f35b6103dc60048036038101906103d79190612c86565b6110d9565b005b3480156103ea57600080fd5b5061040560048036038101906104009190612b68565b6112cb565b005b34801561041357600080fd5b5061042e60048036038101906104299190612aed565b6112e1565b005b61044a60048036038101906104459190612c86565b611343565b005b34801561045857600080fd5b50610473600480360381019061046e9190612c86565b6113dd565b6040516104809190613276565b60405180910390f35b34801561049557600080fd5b5061049e61152f565b6040516104ab9190613239565b60405180910390f35b3480156104c057600080fd5b506104c961174a565b6040516104d69190613518565b60405180910390f35b3480156104eb57600080fd5b5061050660048036038101906105019190612a62565b61185f565b604051610513919061325b565b60405180910390f35b34801561052857600080fd5b506105316118f3565b60405161053e9190613533565b60405180910390f35b60007f80ac58cd000000000000000000000000000000000000000000000000000000007bffffffffffffffffffffffffffffffffffffffffffffffffffffffff1916827bffffffffffffffffffffffffffffffffffffffffffffffffffffffff1916148061061257507f5b5e139f000000000000000000000000000000000000000000000000000000007bffffffffffffffffffffffffffffffffffffffffffffffffffffffff1916827bffffffffffffffffffffffffffffffffffffffffffffffffffffffff1916145b80610622575061062182611904565b5b9050919050565b606060008054610638906137d4565b80601f0160208091040260200160405190810160405280929190818152602001828054610664906137d4565b80156106b15780601f10610686576101008083540402835291602001916106b1565b820191906000526020600020905b81548152906001019060200180831161069457829003601f168201915b5050505050905090565b60006106c68261196e565b610705576040517f08c379a00000000000000000000000000000000000000000000000000000000081526004016106fc90613478565b60405180910390fd5b6004600083815260200190815260200160002060009054906101000a900473ffffffffffffffffffffffffffffffffffffffff169050919050565b600061074b82610d02565b90508073ffffffffffffffffffffffffffffffffffffffff168373ffffffffffffffffffffffffffffffffffffffff1614156107bc576040517f08c379a00000000000000000000000000000000000000000000000000000000081526004016107b3906134d8565b60405180910390fd5b8073ffffffffffffffffffffffffffffffffffffffff166107db6119da565b73ffffffffffffffffffffffffffffffffffffffff16148061080a5750610809816108046119da565b61185f565b5b610849576040517f08c379a000000000000000000000000000000000000000000000000000000000815260040161084090613378565b60405180910390fd5b61085383836119e2565b505050565b6108696108636119da565b82611a9b565b6108a8576040517f08c379a000000000000000000000000000000000000000000000000000000000815260040161089f906134f8565b60405180910390fd5b6108b3838383611b79565b505050565b6108d3838383604051806020016040528060008152506112e1565b505050565b606060006108e66008611de0565b905060008060005b83811015610a07573373ffffffffffffffffffffffffffffffffffffffff16600b600060018461091e9190613651565b815260200190815260200160002060010160009054906101000a900473ffffffffffffffffffffffffffffffffffffffff1673ffffffffffffffffffffffffffffffffffffffff1614806109df57503373ffffffffffffffffffffffffffffffffffffffff16600b60006001846109959190613651565b815260200190815260200160002060020160009054906101000a900473ffffffffffffffffffffffffffffffffffffffff1673ffffffffffffffffffffffffffffffffffffffff16145b156109f4576001836109f19190613651565b92505b80806109ff90613837565b9150506108ee565b5060008267ffffffffffffffff811115610a4a577f4e487b7100000000000000000000000000000000000000000000000000000000600052604160045260246000fd5b604051908082528060200260200182016040528015610a8357816020015b610a70612800565b815260200190600190039081610a685790505b50905060005b84811015610cf7573373ffffffffffffffffffffffffffffffffffffffff16600b6000600184610ab99190613651565b815260200190815260200160002060010160009054906101000a900473ffffffffffffffffffffffffffffffffffffffff1673ffffffffffffffffffffffffffffffffffffffff161480610b7a57503373ffffffffffffffffffffffffffffffffffffffff16600b6000600184610b309190613651565b815260200190815260200160002060020160009054906101000a900473ffffffffffffffffffffffffffffffffffffffff1673ffffffffffffffffffffffffffffffffffffffff16145b15610ce4576000600182610b8e9190613651565b90506000600b60008381526020019081526020016000209050806040518060a0016040529081600082015481526020016001820160009054906101000a900473ffffffffffffffffffffffffffffffffffffffff1673ffffffffffffffffffffffffffffffffffffffff1673ffffffffffffffffffffffffffffffffffffffff1681526020016002820160009054906101000a900473ffffffffffffffffffffffffffffffffffffffff1673ffffffffffffffffffffffffffffffffffffffff1673ffffffffffffffffffffffffffffffffffffffff168152602001600382015481526020016004820160009054906101000a900460ff161515151581525050848681518110610cc7577f4e487b7100000000000000000000000000000000000000000000000000000000600052603260045260246000fd5b6020026020010181905250600185610cdf9190613651565b945050505b8080610cef90613837565b915050610a89565b508094505050505090565b6000806002600084815260200190815260200160002060009054906101000a900473ffffffffffffffffffffffffffffffffffffffff169050600073ffffffffffffffffffffffffffffffffffffffff168173ffffffffffffffffffffffffffffffffffffffff161415610dab576040517f08c379a0000000000000000000000000000000000000000000000000000000008152600401610da2906133b8565b60405180910390fd5b80915050919050565b6000600a54905090565b60008073ffffffffffffffffffffffffffffffffffffffff168273ffffffffffffffffffffffffffffffffffffffff161415610e2f576040517f08c379a0000000000000000000000000000000000000000000000000000000008152600401610e2690613398565b60405180910390fd5b600360008373ffffffffffffffffffffffffffffffffffffffff1673ffffffffffffffffffffffffffffffffffffffff168152602001908152602001600020549050919050565b6000600a543414610ebc576040517f08c379a0000000000000000000000000000000000000000000000000000000008152600401610eb390613358565b60405180910390fd5b60008211610eff576040517f08c379a0000000000000000000000000000000000000000000000000000000008152600401610ef6906134b8565b60405180910390fd5b610f096008611dee565b6000610f156008611de0565b9050610f213382611e04565b610f2b8185611e22565b610f358184611e96565b8091505092915050565b606060018054610f4e906137d4565b80601f0160208091040260200160405190810160405280929190818152602001828054610f7a906137d4565b8015610fc75780601f10610f9c57610100808354040283529160200191610fc7565b820191906000526020600020905b815481529060010190602001808311610faa57829003601f168201915b5050505050905090565b610fd9612800565b600b60008381526020019081526020016000206040518060a0016040529081600082015481526020016001820160009054906101000a900473ffffffffffffffffffffffffffffffffffffffff1673ffffffffffffffffffffffffffffffffffffffff1673ffffffffffffffffffffffffffffffffffffffff1681526020016002820160009054906101000a900473ffffffffffffffffffffffffffffffffffffffff1673ffffffffffffffffffffffffffffffffffffffff1673ffffffffffffffffffffffffffffffffffffffff168152602001600382015481526020016004820160009054906101000a900460ff1615151515815250509050919050565b6000600b6000838152602001908152602001600020600301549050803414611136576040517f08c379a000000000000000000000000000000000000000000000000000000000815260040161112d906133f8565b60405180910390fd5b6000600b600084815260200190815260200160002060020160009054906101000a900473ffffffffffffffffffffffffffffffffffffffff1690506001600b600085815260200190815260200160002060040160006101000a81548160ff02191690831515021790555033600b600085815260200190815260200160002060020160006101000a81548173ffffffffffffffffffffffffffffffffffffffff021916908373ffffffffffffffffffffffffffffffffffffffff1602179055506111ff6009611dee565b61120a303385611b79565b6112143084610740565b600760009054906101000a900473ffffffffffffffffffffffffffffffffffffffff1673ffffffffffffffffffffffffffffffffffffffff166108fc600a549081150290604051600060405180830381858888f1935050505015801561127e573d6000803e3d6000fd5b508073ffffffffffffffffffffffffffffffffffffffff166108fc349081150290604051600060405180830381858888f193505050501580156112c5573d6000803e3d6000fd5b50505050565b6112dd6112d66119da565b8383611fd3565b5050565b6112f26112ec6119da565b83611a9b565b611331576040517f08c379a0000000000000000000000000000000000000000000000000000000008152600401611328906134f8565b60405180910390fd5b61133d84848484612140565b50505050565b3373ffffffffffffffffffffffffffffffffffffffff16600760009054906101000a900473ffffffffffffffffffffffffffffffffffffffff1673ffffffffffffffffffffffffffffffffffffffff16146113d3576040517f08c379a00000000000000000000000000000000000000000000000000000000081526004016113ca90613458565b60405180910390fd5b80600a8190555050565b60606113e88261196e565b611427576040517f08c379a000000000000000000000000000000000000000000000000000000000815260040161141e90613438565b60405180910390fd5b6000600660008481526020019081526020016000208054611447906137d4565b80601f0160208091040260200160405190810160405280929190818152602001828054611473906137d4565b80156114c05780601f10611495576101008083540402835291602001916114c0565b820191906000526020600020905b8154815290600101906020018083116114a357829003601f168201915b5050505050905060006114d161219c565b90506000815114156114e757819250505061152a565b60008251111561151c5780826040516020016115049291906131ae565b6040516020818303038152906040529250505061152a565b611525846121b3565b925050505b919050565b6060600061153d6008611de0565b905060008167ffffffffffffffff811115611581577f4e487b7100000000000000000000000000000000000000000000000000000000600052604160045260246000fd5b6040519080825280602002602001820160405280156115ba57816020015b6115a7612800565b81526020019060019003908161159f5790505b5090506000805b838110156117405760006001826115d89190613651565b90506000600b60008381526020019081526020016000209050806040518060a0016040529081600082015481526020016001820160009054906101000a900473ffffffffffffffffffffffffffffffffffffffff1673ffffffffffffffffffffffffffffffffffffffff1673ffffffffffffffffffffffffffffffffffffffff1681526020016002820160009054906101000a900473ffffffffffffffffffffffffffffffffffffffff1673ffffffffffffffffffffffffffffffffffffffff1673ffffffffffffffffffffffffffffffffffffffff168152602001600382015481526020016004820160009054906101000a900460ff161515151581525050858581518110611711577f4e487b7100000000000000000000000000000000000000000000000000000000600052603260045260246000fd5b60200260200101819052506001846117299190613651565b93505050808061173890613837565b9150506115c1565b5081935050505090565b611752612800565b600061175e6008611de0565b9050600b60008281526020019081526020016000206040518060a0016040529081600082015481526020016001820160009054906101000a900473ffffffffffffffffffffffffffffffffffffffff1673ffffffffffffffffffffffffffffffffffffffff1673ffffffffffffffffffffffffffffffffffffffff1681526020016002820160009054906101000a900473ffffffffffffffffffffffffffffffffffffffff1673ffffffffffffffffffffffffffffffffffffffff1673ffffffffffffffffffffffffffffffffffffffff168152602001600382015481526020016004820160009054906101000a900460ff16151515158152505091505090565b6000600560008473ffffffffffffffffffffffffffffffffffffffff1673ffffffffffffffffffffffffffffffffffffffff16815260200190815260200160002060008373ffffffffffffffffffffffffffffffffffffffff1673ffffffffffffffffffffffffffffffffffffffff16815260200190815260200160002060009054906101000a900460ff16905092915050565b60006118ff6008611de0565b905090565b60007f01ffc9a7000000000000000000000000000000000000000000000000000000007bffffffffffffffffffffffffffffffffffffffffffffffffffffffff1916827bffffffffffffffffffffffffffffffffffffffffffffffffffffffff1916149050919050565b60008073ffffffffffffffffffffffffffffffffffffffff166002600084815260200190815260200160002060009054906101000a900473ffffffffffffffffffffffffffffffffffffffff1673ffffffffffffffffffffffffffffffffffffffff1614159050919050565b600033905090565b816004600083815260200190815260200160002060006101000a81548173ffffffffffffffffffffffffffffffffffffffff021916908373ffffffffffffffffffffffffffffffffffffffff160217905550808273ffffffffffffffffffffffffffffffffffffffff16611a5583610d02565b73ffffffffffffffffffffffffffffffffffffffff167f8c5be1e5ebec7d5bd14f71427d1e84f3dd0314c0f7b2291e5b200ac8c7c3b92560405160405180910390a45050565b6000611aa68261196e565b611ae5576040517f08c379a0000000000000000000000000000000000000000000000000000000008152600401611adc90613338565b60405180910390fd5b6000611af083610d02565b90508073ffffffffffffffffffffffffffffffffffffffff168473ffffffffffffffffffffffffffffffffffffffff161480611b325750611b31818561185f565b5b80611b7057508373ffffffffffffffffffffffffffffffffffffffff16611b58846106bb565b73ffffffffffffffffffffffffffffffffffffffff16145b91505092915050565b8273ffffffffffffffffffffffffffffffffffffffff16611b9982610d02565b73ffffffffffffffffffffffffffffffffffffffff1614611bef576040517f08c379a0000000000000000000000000000000000000000000000000000000008152600401611be6906132b8565b60405180910390fd5b600073ffffffffffffffffffffffffffffffffffffffff168273ffffffffffffffffffffffffffffffffffffffff161415611c5f576040517f08c379a0000000000000000000000000000000000000000000000000000000008152600401611c56906132f8565b60405180910390fd5b611c6a83838361225a565b611c756000826119e2565b6001600360008573ffffffffffffffffffffffffffffffffffffffff1673ffffffffffffffffffffffffffffffffffffffff1681526020019081526020016000206000828254611cc591906136d8565b925050819055506001600360008473ffffffffffffffffffffffffffffffffffffffff1673ffffffffffffffffffffffffffffffffffffffff1681526020019081526020016000206000828254611d1c9190613651565b92505081905550816002600083815260200190815260200160002060006101000a81548173ffffffffffffffffffffffffffffffffffffffff021916908373ffffffffffffffffffffffffffffffffffffffff160217905550808273ffffffffffffffffffffffffffffffffffffffff168473ffffffffffffffffffffffffffffffffffffffff167fddf252ad1be2c89b69c2b068fc378daa952ba7f163c4a11628f55a4df523b3ef60405160405180910390a4611ddb83838361225f565b505050565b600081600001549050919050565b6001816000016000828254019250508190555050565b611e1e828260405180602001604052806000815250612264565b5050565b611e2b8261196e565b611e6a576040517f08c379a0000000000000000000000000000000000000000000000000000000008152600401611e61906133d8565b60405180910390fd5b80600660008481526020019081526020016000209080519060200190611e9192919061285d565b505050565b6040518060a001604052808381526020013073ffffffffffffffffffffffffffffffffffffffff1681526020013373ffffffffffffffffffffffffffffffffffffffff16815260200182815260200160011515815250600b60008481526020019081526020016000206000820151816000015560208201518160010160006101000a81548173ffffffffffffffffffffffffffffffffffffffff021916908373ffffffffffffffffffffffffffffffffffffffff16021790555060408201518160020160006101000a81548173ffffffffffffffffffffffffffffffffffffffff021916908373ffffffffffffffffffffffffffffffffffffffff1602179055506060820151816003015560808201518160040160006101000a81548160ff021916908315150217905550905050611fcf333084611b79565b5050565b8173ffffffffffffffffffffffffffffffffffffffff168373ffffffffffffffffffffffffffffffffffffffff161415612042576040517f08c379a000000000000000000000000000000000000000000000000000000000815260040161203990613318565b60405180910390fd5b80600560008573ffffffffffffffffffffffffffffffffffffffff1673ffffffffffffffffffffffffffffffffffffffff16815260200190815260200160002060008473ffffffffffffffffffffffffffffffffffffffff1673ffffffffffffffffffffffffffffffffffffffff16815260200190815260200160002060006101000a81548160ff0219169083151502179055508173ffffffffffffffffffffffffffffffffffffffff168373ffffffffffffffffffffffffffffffffffffffff167f17307eab39ab6107e8899845ad3d59bd9653f200f220920489ca2b5937696c3183604051612133919061325b565b60405180910390a3505050565b61214b848484611b79565b612157848484846122bf565b612196576040517f08c379a000000000000000000000000000000000000000000000000000000000815260040161218d90613298565b60405180910390fd5b50505050565b606060405180602001604052806000815250905090565b60606121be8261196e565b6121fd576040517f08c379a00000000000000000000000000000000000000000000000000000000081526004016121f490613498565b60405180910390fd5b600061220761219c565b905060008151116122275760405180602001604052806000815250612252565b8061223184612456565b6040516020016122429291906131ae565b6040516020818303038152906040525b915050919050565b505050565b505050565b61226e8383612603565b61227b60008484846122bf565b6122ba576040517f08c379a00000000000000000000000000000000000000000000000000000000081526004016122b190613298565b60405180910390fd5b505050565b60006122e08473ffffffffffffffffffffffffffffffffffffffff166127dd565b15612449578373ffffffffffffffffffffffffffffffffffffffff1663150b7a026123096119da565b8786866040518563ffffffff1660e01b815260040161232b94939291906131ed565b602060405180830381600087803b15801561234557600080fd5b505af192505050801561237657506040513d601f19601f820116820180604052508101906123739190612c09565b60015b6123f9573d80600081146123a6576040519150601f19603f3d011682016040523d82523d6000602084013e6123ab565b606091505b506000815114156123f1576040517f08c379a00000000000000000000000000000000000000000000000000000000081526004016123e890613298565b60405180910390fd5b805181602001fd5b63150b7a0260e01b7bffffffffffffffffffffffffffffffffffffffffffffffffffffffff1916817bffffffffffffffffffffffffffffffffffffffffffffffffffffffff19161491505061244e565b600190505b949350505050565b6060600082141561249e576040518060400160405280600181526020017f300000000000000000000000000000000000000000000000000000000000000081525090506125fe565b600082905060005b600082146124d05780806124b990613837565b915050600a826124c991906136a7565b91506124a6565b60008167ffffffffffffffff811115612512577f4e487b7100000000000000000000000000000000000000000000000000000000600052604160045260246000fd5b6040519080825280601f01601f1916602001820160405280156125445781602001600182028036833780820191505090505b5090505b600085146125f75760018261255d91906136d8565b9150600a8561256c9190613880565b60306125789190613651565b60f81b8183815181106125b4577f4e487b7100000000000000000000000000000000000000000000000000000000600052603260045260246000fd5b60200101907effffffffffffffffffffffffffffffffffffffffffffffffffffffffffffff1916908160001a905350600a856125f091906136a7565b9450612548565b8093505050505b919050565b600073ffffffffffffffffffffffffffffffffffffffff168273ffffffffffffffffffffffffffffffffffffffff161415612673576040517f08c379a000000000000000000000000000000000000000000000000000000000815260040161266a90613418565b60405180910390fd5b61267c8161196e565b156126bc576040517f08c379a00000000000000000000000000000000000000000000000000000000081526004016126b3906132d8565b60405180910390fd5b6126c86000838361225a565b6001600360008473ffffffffffffffffffffffffffffffffffffffff1673ffffffffffffffffffffffffffffffffffffffff16815260200190815260200160002060008282546127189190613651565b92505081905550816002600083815260200190815260200160002060006101000a81548173ffffffffffffffffffffffffffffffffffffffff021916908373ffffffffffffffffffffffffffffffffffffffff160217905550808273ffffffffffffffffffffffffffffffffffffffff16600073ffffffffffffffffffffffffffffffffffffffff167fddf252ad1be2c89b69c2b068fc378daa952ba7f163c4a11628f55a4df523b3ef60405160405180910390a46127d96000838361225f565b5050565b6000808273ffffffffffffffffffffffffffffffffffffffff163b119050919050565b6040518060a0016040528060008152602001600073ffffffffffffffffffffffffffffffffffffffff168152602001600073ffffffffffffffffffffffffffffffffffffffff168152602001600081526020016000151581525090565b828054612869906137d4565b90600052602060002090601f01602090048101928261288b57600085556128d2565b82601f106128a457805160ff19168380011785556128d2565b828001600101855582156128d2579182015b828111156128d15782518255916020019190600101906128b6565b5b5090506128df91906128e3565b5090565b5b808211156128fc5760008160009055506001016128e4565b5090565b600061291361290e84613573565b61354e565b90508281526020810184848401111561292b57600080fd5b612936848285613792565b509392505050565b600061295161294c846135a4565b61354e565b90508281526020810184848401111561296957600080fd5b612974848285613792565b509392505050565b60008135905061298b81613f12565b92915050565b6000813590506129a081613f29565b92915050565b6000813590506129b581613f40565b92915050565b6000815190506129ca81613f40565b92915050565b600082601f8301126129e157600080fd5b81356129f1848260208601612900565b91505092915050565b600082601f830112612a0b57600080fd5b8135612a1b84826020860161293e565b91505092915050565b600081359050612a3381613f57565b92915050565b600060208284031215612a4b57600080fd5b6000612a598482850161297c565b91505092915050565b60008060408385031215612a7557600080fd5b6000612a838582860161297c565b9250506020612a948582860161297c565b9150509250929050565b600080600060608486031215612ab357600080fd5b6000612ac18682870161297c565b9350506020612ad28682870161297c565b9250506040612ae386828701612a24565b9150509250925092565b60008060008060808587031215612b0357600080fd5b6000612b118782880161297c565b9450506020612b228782880161297c565b9350506040612b3387828801612a24565b925050606085013567ffffffffffffffff811115612b5057600080fd5b612b5c878288016129d0565b91505092959194509250565b60008060408385031215612b7b57600080fd5b6000612b898582860161297c565b9250506020612b9a85828601612991565b9150509250929050565b60008060408385031215612bb757600080fd5b6000612bc58582860161297c565b9250506020612bd685828601612a24565b9150509250929050565b600060208284031215612bf257600080fd5b6000612c00848285016129a6565b91505092915050565b600060208284031215612c1b57600080fd5b6000612c29848285016129bb565b91505092915050565b60008060408385031215612c4557600080fd5b600083013567ffffffffffffffff811115612c5f57600080fd5b612c6b858286016129fa565b9250506020612c7c85828601612a24565b9150509250929050565b600060208284031215612c9857600080fd5b6000612ca684828501612a24565b91505092915050565b6000612cbb83836130c0565b60a08301905092915050565b612cd08161371e565b82525050565b612cdf8161370c565b82525050565b6000612cf0826135e5565b612cfa8185613613565b9350612d05836135d5565b8060005b83811015612d36578151612d1d8882612caf565b9750612d2883613606565b925050600181019050612d09565b5085935050505092915050565b612d4c81613730565b82525050565b612d5b81613730565b82525050565b6000612d6c826135f0565b612d768185613624565b9350612d868185602086016137a1565b612d8f8161396d565b840191505092915050565b6000612da5826135fb565b612daf8185613635565b9350612dbf8185602086016137a1565b612dc88161396d565b840191505092915050565b6000612dde826135fb565b612de88185613646565b9350612df88185602086016137a1565b80840191505092915050565b6000612e11603283613635565b9150612e1c8261397e565b604082019050919050565b6000612e34602583613635565b9150612e3f826139cd565b604082019050919050565b6000612e57601c83613635565b9150612e6282613a1c565b602082019050919050565b6000612e7a602483613635565b9150612e8582613a45565b604082019050919050565b6000612e9d601983613635565b9150612ea882613a94565b602082019050919050565b6000612ec0602c83613635565b9150612ecb82613abd565b604082019050919050565b6000612ee3601983613635565b9150612eee82613b0c565b602082019050919050565b6000612f06603883613635565b9150612f1182613b35565b604082019050919050565b6000612f29602a83613635565b9150612f3482613b84565b604082019050919050565b6000612f4c602983613635565b9150612f5782613bd3565b604082019050919050565b6000612f6f602e83613635565b9150612f7a82613c22565b604082019050919050565b6000612f92603d83613635565b9150612f9d82613c71565b604082019050919050565b6000612fb5602083613635565b9150612fc082613cc0565b602082019050919050565b6000612fd8603183613635565b9150612fe382613ce9565b604082019050919050565b6000612ffb602783613635565b915061300682613d38565b604082019050919050565b600061301e602c83613635565b915061302982613d87565b604082019050919050565b6000613041602f83613635565b915061304c82613dd6565b604082019050919050565b6000613064602383613635565b915061306f82613e25565b604082019050919050565b6000613087602183613635565b915061309282613e74565b604082019050919050565b60006130aa603183613635565b91506130b582613ec3565b604082019050919050565b60a0820160008201516130d66000850182613190565b5060208201516130e96020850182612cc7565b5060408201516130fc6040850182612cc7565b50606082015161310f6060850182613190565b5060808201516131226080850182612d43565b50505050565b60a08201600082015161313e6000850182613190565b5060208201516131516020850182612cc7565b5060408201516131646040850182612cc7565b5060608201516131776060850182613190565b50608082015161318a6080850182612d43565b50505050565b61319981613788565b82525050565b6131a881613788565b82525050565b60006131ba8285612dd3565b91506131c68284612dd3565b91508190509392505050565b60006020820190506131e76000830184612cd6565b92915050565b60006080820190506132026000830187612cd6565b61320f6020830186612cd6565b61321c604083018561319f565b818103606083015261322e8184612d61565b905095945050505050565b600060208201905081810360008301526132538184612ce5565b905092915050565b60006020820190506132706000830184612d52565b92915050565b600060208201905081810360008301526132908184612d9a565b905092915050565b600060208201905081810360008301526132b181612e04565b9050919050565b600060208201905081810360008301526132d181612e27565b9050919050565b600060208201905081810360008301526132f181612e4a565b9050919050565b6000602082019050818103600083015261331181612e6d565b9050919050565b6000602082019050818103600083015261333181612e90565b9050919050565b6000602082019050818103600083015261335181612eb3565b9050919050565b6000602082019050818103600083015261337181612ed6565b9050919050565b6000602082019050818103600083015261339181612ef9565b9050919050565b600060208201905081810360008301526133b181612f1c565b9050919050565b600060208201905081810360008301526133d181612f3f565b9050919050565b600060208201905081810360008301526133f181612f62565b9050919050565b6000602082019050818103600083015261341181612f85565b9050919050565b6000602082019050818103600083015261343181612fa8565b9050919050565b6000602082019050818103600083015261345181612fcb565b9050919050565b6000602082019050818103600083015261347181612fee565b9050919050565b6000602082019050818103600083015261349181613011565b9050919050565b600060208201905081810360008301526134b181613034565b9050919050565b600060208201905081810360008301526134d181613057565b9050919050565b600060208201905081810360008301526134f18161307a565b9050919050565b600060208201905081810360008301526135118161309d565b9050919050565b600060a08201905061352d6000830184613128565b92915050565b6000602082019050613548600083018461319f565b92915050565b6000613558613569565b90506135648282613806565b919050565b6000604051905090565b600067ffffffffffffffff82111561358e5761358d61393e565b5b6135978261396d565b9050602081019050919050565b600067ffffffffffffffff8211156135bf576135be61393e565b5b6135c88261396d565b9050602081019050919050565b6000819050602082019050919050565b600081519050919050565b600081519050919050565b600081519050919050565b6000602082019050919050565b600082825260208201905092915050565b600082825260208201905092915050565b600082825260208201905092915050565b600081905092915050565b600061365c82613788565b915061366783613788565b9250827fffffffffffffffffffffffffffffffffffffffffffffffffffffffffffffffff0382111561369c5761369b6138b1565b5b828201905092915050565b60006136b282613788565b91506136bd83613788565b9250826136cd576136cc6138e0565b5b828204905092915050565b60006136e382613788565b91506136ee83613788565b925082821015613701576137006138b1565b5b828203905092915050565b600061371782613768565b9050919050565b600061372982613768565b9050919050565b60008115159050919050565b60007fffffffff0000000000000000000000000000000000000000000000000000000082169050919050565b600073ffffffffffffffffffffffffffffffffffffffff82169050919050565b6000819050919050565b82818337600083830152505050565b60005b838110156137bf5780820151818401526020810190506137a4565b838111156137ce576000848401525b50505050565b600060028204905060018216806137ec57607f821691505b60208210811415613800576137ff61390f565b5b50919050565b61380f8261396d565b810181811067ffffffffffffffff8211171561382e5761382d61393e565b5b80604052505050565b600061384282613788565b91507fffffffffffffffffffffffffffffffffffffffffffffffffffffffffffffffff821415613875576138746138b1565b5b600182019050919050565b600061388b82613788565b915061389683613788565b9250826138a6576138a56138e0565b5b828206905092915050565b7f4e487b7100000000000000000000000000000000000000000000000000000000600052601160045260246000fd5b7f4e487b7100000000000000000000000000000000000000000000000000000000600052601260045260246000fd5b7f4e487b7100000000000000000000000000000000000000000000000000000000600052602260045260246000fd5b7f4e487b7100000000000000000000000000000000000000000000000000000000600052604160045260246000fd5b6000601f19601f8301169050919050565b7f4552433732313a207472616e7366657220746f206e6f6e20455243373231526560008201527f63656976657220696d706c656d656e7465720000000000000000000000000000602082015250565b7f4552433732313a207472616e736665722066726f6d20696e636f72726563742060008201527f6f776e6572000000000000000000000000000000000000000000000000000000602082015250565b7f4552433732313a20746f6b656e20616c7265616479206d696e74656400000000600082015250565b7f4552433732313a207472616e7366657220746f20746865207a65726f2061646460008201527f7265737300000000000000000000000000000000000000000000000000000000602082015250565b7f4552433732313a20617070726f766520746f2063616c6c657200000000000000600082015250565b7f4552433732313a206f70657261746f7220717565727920666f72206e6f6e657860008201527f697374656e7420746f6b656e0000000000000000000000000000000000000000602082015250565b7f53656e6420656e6f75676820657468657220746f206c69737400000000000000600082015250565b7f4552433732313a20617070726f76652063616c6c6572206973206e6f74206f7760008201527f6e6572206e6f7220617070726f76656420666f7220616c6c0000000000000000602082015250565b7f4552433732313a2062616c616e636520717565727920666f7220746865207a6560008201527f726f206164647265737300000000000000000000000000000000000000000000602082015250565b7f4552433732313a206f776e657220717565727920666f72206e6f6e657869737460008201527f656e7420746f6b656e0000000000000000000000000000000000000000000000602082015250565b7f45524337323155524953746f726167653a2055524920736574206f66206e6f6e60008201527f6578697374656e7420746f6b656e000000000000000000000000000000000000602082015250565b7f506c656173652073656e64207468652061736b696e6720707269636520666f7260008201527f20746865204e465420696e206f7264657220746f207075726368617365000000602082015250565b7f4552433732313a206d696e7420746f20746865207a65726f2061646472657373600082015250565b7f45524337323155524953746f726167653a2055524920717565727920666f722060008201527f6e6f6e6578697374656e7420746f6b656e000000000000000000000000000000602082015250565b7f6f6e6c7920746865206f776e65722063616e20757064617465206c697374696e60008201527f6720707269636500000000000000000000000000000000000000000000000000602082015250565b7f4552433732313a20617070726f76656420717565727920666f72206e6f6e657860008201527f697374656e7420746f6b656e0000000000000000000000000000000000000000602082015250565b7f4552433732314d657461646174613a2055524920717565727920666f72206e6f60008201527f6e6578697374656e7420746f6b656e0000000000000000000000000000000000602082015250565b7f4d616b65207375726520746865207072696365206973206e6f74206e6567617460008201527f6976650000000000000000000000000000000000000000000000000000000000602082015250565b7f4552433732313a20617070726f76616c20746f2063757272656e74206f776e6560008201527f7200000000000000000000000000000000000000000000000000000000000000602082015250565b7f4552433732313a207472616e736665722063616c6c6572206973206e6f74206f60008201527f776e6572206e6f7220617070726f766564000000000000000000000000000000602082015250565b613f1b8161370c565b8114613f2657600080fd5b50565b613f3281613730565b8114613f3d57600080fd5b50565b613f498161373c565b8114613f5457600080fd5b50565b613f6081613788565b8114613f6b57600080fd5b5056fea2646970667358221220edf1e613793b736c6aa213ed1de446b4e5727a6ecb91ba3576d278c5a3c979da64736f6c63430008010033",
  "linkReferences": {},
  "deployedLinkReferences": {}
}